{
  "contractName": "Owned",
  "abi": [
    {
      "inputs": [],
      "stateMutability": "nonpayable",
      "type": "constructor"
    },
    {
      "anonymous": false,
      "inputs": [
        {
          "indexed": true,
          "internalType": "address",
          "name": "oldOwner",
          "type": "address"
        },
        {
          "indexed": true,
          "internalType": "address",
          "name": "newOwner",
          "type": "address"
        }
      ],
      "name": "LogOwnerChanged",
      "type": "event"
    },
    {
      "anonymous": false,
      "inputs": [
        {
          "indexed": true,
          "internalType": "address",
          "name": "owner",
          "type": "address"
        }
      ],
      "name": "LogOwnershipRenounced",
      "type": "event"
    },
    {
      "inputs": [],
      "name": "getOwner",
      "outputs": [
        {
          "internalType": "address",
          "name": "ownersAddress",
          "type": "address"
        }
      ],
      "stateMutability": "view",
      "type": "function"
    },
    {
      "inputs": [
        {
          "internalType": "address",
          "name": "newOwner",
          "type": "address"
        }
      ],
      "name": "changeOwner",
      "outputs": [
        {
          "internalType": "bool",
          "name": "success",
          "type": "bool"
        }
      ],
      "stateMutability": "nonpayable",
      "type": "function"
    },
    {
      "inputs": [],
      "name": "renounceOwnership",
      "outputs": [
        {
          "internalType": "bool",
          "name": "success",
          "type": "bool"
        }
      ],
      "stateMutability": "nonpayable",
      "type": "function"
    }
  ],
  "bytecode": "0x608060405234801561001057600080fd5b50336000806101000a81548173ffffffffffffffffffffffffffffffffffffffff021916908373ffffffffffffffffffffffffffffffffffffffff160217905550610588806100606000396000f3fe608060405234801561001057600080fd5b50600436106100415760003560e01c8063715018a614610046578063893d20e814610066578063a6f9dae11461009a575b600080fd5b61004e6100f4565b60405180821515815260200191505060405180910390f35b61006e610243565b604051808273ffffffffffffffffffffffffffffffffffffffff16815260200191505060405180910390f35b6100dc600480360360208110156100b057600080fd5b81019080803573ffffffffffffffffffffffffffffffffffffffff16906020019092919050505061026c565b60405180821515815260200191505060405180910390f35b60008060009054906101000a900473ffffffffffffffffffffffffffffffffffffffff1673ffffffffffffffffffffffffffffffffffffffff163373ffffffffffffffffffffffffffffffffffffffff16146101b8576040517f08c379a000000000000000000000000000000000000000000000000000000000815260040180806020018281038252601e8152602001807f4f776e65643a2043616c6c6572206973206e6f7420746865206f776e6572000081525060200191505060405180910390fd5b60008060006101000a81548173ffffffffffffffffffffffffffffffffffffffff021916908373ffffffffffffffffffffffffffffffffffffffff1602179055503373ffffffffffffffffffffffffffffffffffffffff167f2dde1bc8b58ef192e7df3e7a354521d958331021e450d544346b936936916ef460405160405180910390a26001905090565b60008060009054906101000a900473ffffffffffffffffffffffffffffffffffffffff16905090565b60008060009054906101000a900473ffffffffffffffffffffffffffffffffffffffff1673ffffffffffffffffffffffffffffffffffffffff163373ffffffffffffffffffffffffffffffffffffffff1614610330576040517f08c379a000000000000000000000000000000000000000000000000000000000815260040180806020018281038252601e8152602001807f4f776e65643a2043616c6c6572206973206e6f7420746865206f776e6572000081525060200191505060405180910390fd5b600073ffffffffffffffffffffffffffffffffffffffff168273ffffffffffffffffffffffffffffffffffffffff1614156103b6576040517f08c379a000000000000000000000000000000000000000000000000000000000815260040180806020018281038252602b8152602001806104ff602b913960400191505060405180910390fd5b60008054906101000a900473ffffffffffffffffffffffffffffffffffffffff1673ffffffffffffffffffffffffffffffffffffffff168273ffffffffffffffffffffffffffffffffffffffff16141561045b576040517f08c379a000000000000000000000000000000000000000000000000000000000815260040180806020018281038252602981526020018061052a6029913960400191505060405180910390fd5b816000806101000a81548173ffffffffffffffffffffffffffffffffffffffff021916908373ffffffffffffffffffffffffffffffffffffffff1602179055508173ffffffffffffffffffffffffffffffffffffffff163373ffffffffffffffffffffffffffffffffffffffff167ffcf23a92150d56e85e3a3d33b357493246e55783095eb6a733eb8439ffc752c860405160405180910390a36001905091905056fe4f776e65643a204f776e657273686970206973206e6f74207472616e7366657261626c6520746f203078304f776e65643a204f776e657273686970206973206e6f742073656c662d7472616e7366657261626c65a2646970667358221220d0db3c9b2876b144a3d0f83bf37d58797ac3c7994d8361491d3d891e8ad92ead64736f6c634300060c0033",
  "immutableReferences": {},
  "source": "// SPDX-License-Identifier: Unlicense\n\n//B9lab ETH-SUB Ethereum Developer Subscription Course\n//>>> Owned <<<\n//\n//Last update: 07.11.2020\n\npragma solidity 0.6.12;\n\n/**\n * @title Owned\n *  Owner administration\n */\ncontract Owned{\n    //Variable declaration\n    address private owner;\n\n    //Events\n    event LogOwnerChanged(address indexed oldOwner, address indexed newOwner);\n    event LogOwnershipRenounced(address indexed owner);\n\n    //Modifier\n    modifier onlyOwner{\n        require(msg.sender == owner, \"Owned: Caller is not the owner\");\n        _;\n    }\n\n    //Initial function\n    constructor() public{\n        owner = msg.sender;\n    }\n\n    //Retrieve owner address\n    function getOwner() public view returns(address ownersAddress){\n        return owner;\n    }\n\n    //Change owner\n    function changeOwner(address newOwner) public onlyOwner returns(bool success){\n        require(newOwner != address(0x0), \"Owned: Ownership is not transferable to 0x0\");\n        require(newOwner != owner, \"Owned: Ownership is not self-transferable\");\n\n        owner = newOwner;\n\n        emit LogOwnerChanged(msg.sender, newOwner);\n        return true;\n    }\n\n    //Owner can resign\n    function renounceOwnership() public onlyOwner returns(bool success){\n        owner = address(0x0);\n\n        emit LogOwnershipRenounced(msg.sender);\n        return true;\n    }\n}",
  "sourcePath": "/home/niels/ITstuff/ETH-SUB/DAPPS/project_splitter/contracts/Owned.sol",
  "compiler": {
    "name": "solc",
    "version": "0.6.12+commit.27d51765.Emscripten.clang"
  },
  "schemaVersion": "3.2.5",
  "updatedAt": "2020-11-15T14:54:04.179Z",
  "devdoc": {
    "kind": "dev",
    "methods": {},
    "title": "Owned  Owner administration",
    "version": 1
  },
  "userdoc": {
    "kind": "user",
    "methods": {},
    "version": 1
  }
}