{
  "contractName": "Splitter",
  "abi": [
    {
      "inputs": [
        {
          "internalType": "enum Stoppable.State",
          "name": "initialState",
          "type": "uint8"
        }
      ],
      "stateMutability": "nonpayable",
      "type": "constructor"
    },
    {
      "anonymous": false,
      "inputs": [
        {
          "indexed": true,
          "internalType": "address",
          "name": "oldOwner",
          "type": "address"
        },
        {
          "indexed": true,
          "internalType": "address",
          "name": "newOwner",
          "type": "address"
        }
      ],
      "name": "LogOwnerChanged",
      "type": "event"
    },
    {
      "anonymous": false,
      "inputs": [
        {
          "indexed": true,
          "internalType": "address",
          "name": "owner",
          "type": "address"
        }
      ],
      "name": "LogOwnershipRenounced",
      "type": "event"
    },
    {
      "anonymous": false,
      "inputs": [
        {
          "indexed": true,
          "internalType": "address",
          "name": "sender",
          "type": "address"
        },
        {
          "indexed": true,
          "internalType": "address",
          "name": "recipient1",
          "type": "address"
        },
        {
          "indexed": true,
          "internalType": "address",
          "name": "recipient2",
          "type": "address"
        },
        {
          "indexed": false,
          "internalType": "uint256",
          "name": "amount",
          "type": "uint256"
        }
      ],
      "name": "LogSplit",
      "type": "event"
    },
    {
      "anonymous": false,
      "inputs": [
        {
          "indexed": true,
          "internalType": "address",
          "name": "sender",
          "type": "address"
        },
        {
          "indexed": false,
          "internalType": "enum Stoppable.State",
          "name": "state",
          "type": "uint8"
        }
      ],
      "name": "LogStoppable",
      "type": "event"
    },
    {
      "anonymous": false,
      "inputs": [
        {
          "indexed": true,
          "internalType": "address",
          "name": "recipient",
          "type": "address"
        },
        {
          "indexed": false,
          "internalType": "uint256",
          "name": "amount",
          "type": "uint256"
        }
      ],
      "name": "LogWithdraw",
      "type": "event"
    },
    {
      "inputs": [
        {
          "internalType": "address",
          "name": "",
          "type": "address"
        }
      ],
      "name": "balances",
      "outputs": [
        {
          "internalType": "uint256",
          "name": "",
          "type": "uint256"
        }
      ],
      "stateMutability": "view",
      "type": "function",
      "constant": true
    },
    {
      "inputs": [
        {
          "internalType": "address",
          "name": "newOwner",
          "type": "address"
        }
      ],
      "name": "changeOwner",
      "outputs": [
        {
          "internalType": "bool",
          "name": "success",
          "type": "bool"
        }
      ],
      "stateMutability": "nonpayable",
      "type": "function"
    },
    {
      "inputs": [],
      "name": "destroyContract",
      "outputs": [
        {
          "internalType": "bool",
          "name": "success",
          "type": "bool"
        }
      ],
      "stateMutability": "nonpayable",
      "type": "function"
    },
    {
      "inputs": [],
      "name": "getOwner",
      "outputs": [
        {
          "internalType": "address",
          "name": "ownersAddress",
          "type": "address"
        }
      ],
      "stateMutability": "view",
      "type": "function",
      "constant": true
    },
    {
      "inputs": [],
      "name": "getState",
      "outputs": [
        {
          "internalType": "enum Stoppable.State",
          "name": "contractState",
          "type": "uint8"
        }
      ],
      "stateMutability": "view",
      "type": "function",
      "constant": true
    },
    {
      "inputs": [],
      "name": "pauseContract",
      "outputs": [
        {
          "internalType": "bool",
          "name": "success",
          "type": "bool"
        }
      ],
      "stateMutability": "nonpayable",
      "type": "function"
    },
    {
      "inputs": [],
      "name": "renounceOwnership",
      "outputs": [
        {
          "internalType": "bool",
          "name": "success",
          "type": "bool"
        }
      ],
      "stateMutability": "nonpayable",
      "type": "function"
    },
    {
      "inputs": [],
      "name": "resumeContract",
      "outputs": [
        {
          "internalType": "bool",
          "name": "success",
          "type": "bool"
        }
      ],
      "stateMutability": "nonpayable",
      "type": "function"
    },
    {
      "inputs": [
        {
          "internalType": "address",
          "name": "recipient1",
          "type": "address"
        },
        {
          "internalType": "address",
          "name": "recipient2",
          "type": "address"
        }
      ],
      "name": "split",
      "outputs": [
        {
          "internalType": "bool",
          "name": "success",
          "type": "bool"
        }
      ],
      "stateMutability": "payable",
      "type": "function",
      "payable": true
    },
    {
      "inputs": [],
      "name": "withdraw",
      "outputs": [
        {
          "internalType": "bool",
          "name": "success",
          "type": "bool"
        }
      ],
      "stateMutability": "nonpayable",
      "type": "function"
    }
  ],
  "bytecode": "0x608060405234801561001057600080fd5b506040516119ff3803806119ff8339818101604052602081101561003357600080fd5b810190808051906020019092919050505080336000806101000a81548173ffffffffffffffffffffffffffffffffffffffff021916908373ffffffffffffffffffffffffffffffffffffffff160217905550600181600281111561009357fe5b60ff1611156100ed576040517f08c379a00000000000000000000000000000000000000000000000000000000081526004018080602001828103825260428152602001806119bd6042913960600191505060405180910390fd5b80600060146101000a81548160ff0219169083600281111561010b57fe5b0217905550505061189c806101216000396000f3fe6080604052600436106100915760003560e01c8063439766ce11610059578063439766ce14610205578063715018a614610232578063893d20e81461025f578063a6f9dae1146102a0578063c4bc5da51461030757610091565b8063092a5cce146100965780630f2c9329146100c35780631865c57d1461013d57806327e235e3146101735780633ccfd60b146101d8575b600080fd5b3480156100a257600080fd5b506100ab610334565b60405180821515815260200191505060405180910390f35b610125600480360360408110156100d957600080fd5b81019080803573ffffffffffffffffffffffffffffffffffffffff169060200190929190803573ffffffffffffffffffffffffffffffffffffffff1690602001909291905050506105e1565b60405180821515815260200191505060405180910390f35b34801561014957600080fd5b50610152610a9e565b6040518082600281111561016257fe5b815260200191505060405180910390f35b34801561017f57600080fd5b506101c26004803603602081101561019657600080fd5b81019080803573ffffffffffffffffffffffffffffffffffffffff169060200190929190505050610ab4565b6040518082815260200191505060405180910390f35b3480156101e457600080fd5b506101ed610acc565b60405180821515815260200191505060405180910390f35b34801561021157600080fd5b5061021a610d79565b60405180821515815260200191505060405180910390f35b34801561023e57600080fd5b50610247610f4d565b60405180821515815260200191505060405180910390f35b34801561026b57600080fd5b5061027461109c565b604051808273ffffffffffffffffffffffffffffffffffffffff16815260200191505060405180910390f35b3480156102ac57600080fd5b506102ef600480360360208110156102c357600080fd5b81019080803573ffffffffffffffffffffffffffffffffffffffff1690602001909291905050506110c5565b60405180821515815260200191505060405180910390f35b34801561031357600080fd5b5061031c611357565b60405180821515815260200191505060405180910390f35b60008060009054906101000a900473ffffffffffffffffffffffffffffffffffffffff1673ffffffffffffffffffffffffffffffffffffffff163373ffffffffffffffffffffffffffffffffffffffff16146103f8576040517f08c379a000000000000000000000000000000000000000000000000000000000815260040180806020018281038252601e8152602001807f4f776e65643a2043616c6c6572206973206e6f7420746865206f776e6572000081525060200191505060405180910390fd5b6000600281111561040557fe5b600060149054906101000a900460ff16600281111561042057fe5b14610476576040517f08c379a00000000000000000000000000000000000000000000000000000000081526004018080602001828103825260218152602001806117fb6021913960400191505060405180910390fd5b6002600060146101000a81548160ff0219169083600281111561049557fe5b02179055503373ffffffffffffffffffffffffffffffffffffffff167fb69c8d69472936aa400ce372a28aabe319f1770c9cf6bdeadf0c399035cd5ebf600060149054906101000a900460ff16604051808260028111156104f257fe5b815260200191505060405180910390a23373ffffffffffffffffffffffffffffffffffffffff164760405180600001905060006040518083038185875af1925050503d8060008114610560576040519150601f19603f3d011682016040523d82523d6000602084013e610565565b606091505b505080915050806105de576040517f08c379a000000000000000000000000000000000000000000000000000000000815260040180806020018281038252600f8152602001807f5472616e73666572206661696c6564000000000000000000000000000000000081525060200191505060405180910390fd5b90565b6000600160028111156105f057fe5b600060149054906101000a900460ff16600281111561060b57fe5b14610661576040517f08c379a00000000000000000000000000000000000000000000000000000000081526004018080602001828103825260228152602001806118456022913960400191505060405180910390fd5b600034116106d7576040517f08c379a00000000000000000000000000000000000000000000000000000000081526004018080602001828103825260108152602001807f4e6f7468696e6720746f2073706c69740000000000000000000000000000000081525060200191505060405180910390fd5b600073ffffffffffffffffffffffffffffffffffffffff168373ffffffffffffffffffffffffffffffffffffffff16141561077a576040517f08c379a000000000000000000000000000000000000000000000000000000000815260040180806020018281038252601e8152602001807f4e6f7420616c6c6f77656420746f207472616e7366657220746f20307830000081525060200191505060405180910390fd5b600073ffffffffffffffffffffffffffffffffffffffff168273ffffffffffffffffffffffffffffffffffffffff16141561081d576040517f08c379a000000000000000000000000000000000000000000000000000000000815260040180806020018281038252601e8152602001807f4e6f7420616c6c6f77656420746f207472616e7366657220746f20307830000081525060200191505060405180910390fd5b600061083360023461152c90919063ffffffff16565b9050600061084b60023461157690919063ffffffff16565b905061089f82600160008873ffffffffffffffffffffffffffffffffffffffff1673ffffffffffffffffffffffffffffffffffffffff168152602001908152602001600020546115c090919063ffffffff16565b600160008773ffffffffffffffffffffffffffffffffffffffff1673ffffffffffffffffffffffffffffffffffffffff1681526020019081526020016000208190555061093482600160008773ffffffffffffffffffffffffffffffffffffffff1673ffffffffffffffffffffffffffffffffffffffff168152602001908152602001600020546115c090919063ffffffff16565b600160008673ffffffffffffffffffffffffffffffffffffffff1673ffffffffffffffffffffffffffffffffffffffff168152602001908152602001600020819055506000811115610a16576109d281600160003373ffffffffffffffffffffffffffffffffffffffff1673ffffffffffffffffffffffffffffffffffffffff168152602001908152602001600020546115c090919063ffffffff16565b600160003373ffffffffffffffffffffffffffffffffffffffff1673ffffffffffffffffffffffffffffffffffffffff168152602001908152602001600020819055505b8373ffffffffffffffffffffffffffffffffffffffff168573ffffffffffffffffffffffffffffffffffffffff163373ffffffffffffffffffffffffffffffffffffffff167f5861cc23de8cab7630160dc0ee2c1e9aa2a0f1498f73c387807c0100e6684da7346040518082815260200191505060405180910390a460019250505092915050565b60008060149054906101000a900460ff16905090565b60016020528060005260406000206000915090505481565b600060016002811115610adb57fe5b600060149054906101000a900460ff166002811115610af657fe5b14610b4c576040517f08c379a00000000000000000000000000000000000000000000000000000000081526004018080602001828103825260228152602001806118456022913960400191505060405180910390fd5b6000600160003373ffffffffffffffffffffffffffffffffffffffff1673ffffffffffffffffffffffffffffffffffffffff16815260200190815260200160002054905060008111610c06576040517f08c379a00000000000000000000000000000000000000000000000000000000081526004018080602001828103825260148152602001807f4e6f2076616c756520746f20726574726965766500000000000000000000000081525060200191505060405180910390fd5b6000600160003373ffffffffffffffffffffffffffffffffffffffff1673ffffffffffffffffffffffffffffffffffffffff168152602001908152602001600020819055503373ffffffffffffffffffffffffffffffffffffffff167f4ce7033d118120e254016dccf195288400b28fc8936425acd5f17ce2df3ab708826040518082815260200191505060405180910390a23373ffffffffffffffffffffffffffffffffffffffff168160405180600001905060006040518083038185875af1925050503d8060008114610cf7576040519150601f19603f3d011682016040523d82523d6000602084013e610cfc565b606091505b50508092505081610d75576040517f08c379a000000000000000000000000000000000000000000000000000000000815260040180806020018281038252600f8152602001807f5472616e73666572206661696c6564000000000000000000000000000000000081525060200191505060405180910390fd5b5090565b60008060009054906101000a900473ffffffffffffffffffffffffffffffffffffffff1673ffffffffffffffffffffffffffffffffffffffff163373ffffffffffffffffffffffffffffffffffffffff1614610e3d576040517f08c379a000000000000000000000000000000000000000000000000000000000815260040180806020018281038252601e8152602001807f4f776e65643a2043616c6c6572206973206e6f7420746865206f776e6572000081525060200191505060405180910390fd5b60016002811115610e4a57fe5b600060149054906101000a900460ff166002811115610e6557fe5b14610ebb576040517f08c379a00000000000000000000000000000000000000000000000000000000081526004018080602001828103825260228152602001806118456022913960400191505060405180910390fd5b60008060146101000a81548160ff02191690836002811115610ed957fe5b02179055503373ffffffffffffffffffffffffffffffffffffffff167fb69c8d69472936aa400ce372a28aabe319f1770c9cf6bdeadf0c399035cd5ebf600060149054906101000a900460ff1660405180826002811115610f3657fe5b815260200191505060405180910390a26001905090565b60008060009054906101000a900473ffffffffffffffffffffffffffffffffffffffff1673ffffffffffffffffffffffffffffffffffffffff163373ffffffffffffffffffffffffffffffffffffffff1614611011576040517f08c379a000000000000000000000000000000000000000000000000000000000815260040180806020018281038252601e8152602001807f4f776e65643a2043616c6c6572206973206e6f7420746865206f776e6572000081525060200191505060405180910390fd5b60008060006101000a81548173ffffffffffffffffffffffffffffffffffffffff021916908373ffffffffffffffffffffffffffffffffffffffff1602179055503373ffffffffffffffffffffffffffffffffffffffff167f2dde1bc8b58ef192e7df3e7a354521d958331021e450d544346b936936916ef460405160405180910390a26001905090565b60008060009054906101000a900473ffffffffffffffffffffffffffffffffffffffff16905090565b60008060009054906101000a900473ffffffffffffffffffffffffffffffffffffffff1673ffffffffffffffffffffffffffffffffffffffff163373ffffffffffffffffffffffffffffffffffffffff1614611189576040517f08c379a000000000000000000000000000000000000000000000000000000000815260040180806020018281038252601e8152602001807f4f776e65643a2043616c6c6572206973206e6f7420746865206f776e6572000081525060200191505060405180910390fd5b600073ffffffffffffffffffffffffffffffffffffffff168273ffffffffffffffffffffffffffffffffffffffff16141561120f576040517f08c379a000000000000000000000000000000000000000000000000000000000815260040180806020018281038252602b8152602001806117d0602b913960400191505060405180910390fd5b60008054906101000a900473ffffffffffffffffffffffffffffffffffffffff1673ffffffffffffffffffffffffffffffffffffffff168273ffffffffffffffffffffffffffffffffffffffff1614156112b4576040517f08c379a000000000000000000000000000000000000000000000000000000000815260040180806020018281038252602981526020018061181c6029913960400191505060405180910390fd5b816000806101000a81548173ffffffffffffffffffffffffffffffffffffffff021916908373ffffffffffffffffffffffffffffffffffffffff1602179055508173ffffffffffffffffffffffffffffffffffffffff163373ffffffffffffffffffffffffffffffffffffffff167ffcf23a92150d56e85e3a3d33b357493246e55783095eb6a733eb8439ffc752c860405160405180910390a360019050919050565b60008060009054906101000a900473ffffffffffffffffffffffffffffffffffffffff1673ffffffffffffffffffffffffffffffffffffffff163373ffffffffffffffffffffffffffffffffffffffff161461141b576040517f08c379a000000000000000000000000000000000000000000000000000000000815260040180806020018281038252601e8152602001807f4f776e65643a2043616c6c6572206973206e6f7420746865206f776e6572000081525060200191505060405180910390fd5b6000600281111561142857fe5b600060149054906101000a900460ff16600281111561144357fe5b14611499576040517f08c379a00000000000000000000000000000000000000000000000000000000081526004018080602001828103825260218152602001806117fb6021913960400191505060405180910390fd5b6001600060146101000a81548160ff021916908360028111156114b857fe5b02179055503373ffffffffffffffffffffffffffffffffffffffff167fb69c8d69472936aa400ce372a28aabe319f1770c9cf6bdeadf0c399035cd5ebf600060149054906101000a900460ff166040518082600281111561151557fe5b815260200191505060405180910390a26001905090565b600061156e83836040518060400160405280601a81526020017f536166654d6174683a206469766973696f6e206279207a65726f000000000000815250611648565b905092915050565b60006115b883836040518060400160405280601881526020017f536166654d6174683a206d6f64756c6f206279207a65726f000000000000000081525061170e565b905092915050565b60008082840190508381101561163e576040517f08c379a000000000000000000000000000000000000000000000000000000000815260040180806020018281038252601b8152602001807f536166654d6174683a206164646974696f6e206f766572666c6f77000000000081525060200191505060405180910390fd5b8091505092915050565b600080831182906116f4576040517f08c379a00000000000000000000000000000000000000000000000000000000081526004018080602001828103825283818151815260200191508051906020019080838360005b838110156116b957808201518184015260208101905061169e565b50505050905090810190601f1680156116e65780820380516001836020036101000a031916815260200191505b509250505060405180910390fd5b50600083858161170057fe5b049050809150509392505050565b60008083141582906117bb576040517f08c379a00000000000000000000000000000000000000000000000000000000081526004018080602001828103825283818151815260200191508051906020019080838360005b83811015611780578082015181840152602081019050611765565b50505050905090810190601f1680156117ad5780820380516001836020036101000a031916815260200191505b509250505060405180910390fd5b508284816117c557fe5b069050939250505056fe4f776e65643a204f776e657273686970206973206e6f74207472616e7366657261626c6520746f2030783053746f707061626c653a20436f6e7472616374206973206e6f74207061757365644f776e65643a204f776e657273686970206973206e6f742073656c662d7472616e7366657261626c6553746f707061626c653a20436f6e7472616374206973206e6f742072756e6e696e67a264697066735822122080547c7392f4387c91e8c22de2666e8b9f2a19a1391645d503fb8f0d9b1a262c64736f6c634300060c003353746f707061626c653a20496e697469616c20636f6e74726163742073746174652063616e2062652030202870617573656429206f722031202872756e6e696e6729",
  "immutableReferences": {},
  "source": "// SPDX-License-Identifier: Unlicense\n\n//B9lab ETH-SUB Ethereum Developer Subscription Course\n//>>> Splitter <<<\n//\n//Last update: 10.11.2020\n\npragma solidity 0.6.12;\n\nimport \"./Stoppable.sol\";\nimport \"@openzeppelin/contracts/math/SafeMath.sol\";\n\n/**\n * @title Splitter\n *  Splitter is a contract where amounts sent to this contract are split between two recipients\n */\ncontract Splitter is Stoppable{\n    using SafeMath for uint;\n\n    mapping (address => uint) public balances;\n\n    event LogSplit(address indexed sender, address indexed recipient1, address indexed recipient2, uint amount);\n    event LogWithdraw(address indexed recipient, uint amount);\n\n    constructor(State initialState)\n        Stoppable(initialState) public { }\n\n    /**\n     * @dev Amount attached to the transaction are splitted between recipient1 and recipient2\n     *      Any remaining amount remains with the sender\n     *\n     * @param recipient1 The address of the first recipient\n     * @param recipient2 The address of the second recipient\n     */\n    function split(address recipient1, address recipient2) public payable onlyIfRunning returns(bool success){\n        require(msg.value > 0, \"Nothing to split\");\n        require(recipient1 != address(0x0), \"Not allowed to transfer to 0x0\");\n        require(recipient2 != address(0x0), \"Not allowed to transfer to 0x0\");\n\n        uint amount = msg.value.div(2);\n        uint remainder = msg.value.mod(2);\n\n        balances[recipient1] = balances[recipient1].add(amount);\n        balances[recipient2] = balances[recipient2].add(amount);\n\n        if(remainder > 0){\n            balances[msg.sender] = balances[msg.sender].add(remainder);\n        }\n\n        emit LogSplit(msg.sender, recipient1, recipient2, msg.value);\n        return true;\n    }\n\n    /**\n     * @dev Recipients can withdraw their amount locked in the contract\n     */\n    function withdraw() public onlyIfRunning returns(bool success){\n        uint amount = balances[msg.sender];\n        require(amount > 0, \"No value to retrieve\");\n\n        balances[msg.sender] = 0;\n\n        emit LogWithdraw(msg.sender, amount);\n\n        //EIP 1884 (https://eips.ethereum.org/EIPS/eip-1884) within Istanbul hard fork\n        //Avoidance of Solidity's transfer() or send() methods\n        (success, ) = msg.sender.call{value: amount}(\"\");\n        require(success, \"Transfer failed\");\n    }\n}",
  "sourcePath": "/home/niels/ITstuff/ETH-SUB/DAPPS/project_splitter/contracts/Splitter.sol",
  "compiler": {
    "name": "solc",
    "version": "0.6.12+commit.27d51765.Emscripten.clang"
  },
  "schemaVersion": "3.2.5",
  "updatedAt": "2020-11-15T21:48:16.477Z",
  "networkType": "ethereum",
  "devdoc": {
    "kind": "dev",
    "methods": {
      "split(address,address)": {
        "details": "Amount attached to the transaction are splitted between recipient1 and recipient2      Any remaining amount remains with the sender",
        "params": {
          "recipient1": "The address of the first recipient",
          "recipient2": "The address of the second recipient"
        }
      },
      "withdraw()": {
        "details": "Recipients can withdraw their amount locked in the contract"
      }
    },
    "title": "Splitter  Splitter is a contract where amounts sent to this contract are split between two recipients",
    "version": 1
  },
  "userdoc": {
    "kind": "user",
    "methods": {},
    "version": 1
  }
}